{
  "_format": "hh-sol-artifact-1",
  "contractName": "CrowdFunding",
  "sourceName": "contracts/CrowdFunding.sol",
  "abi": [
    {
      "inputs": [
        {
          "internalType": "uint256",
          "name": "",
          "type": "uint256"
        }
      ],
      "name": "campignes",
      "outputs": [
        {
          "internalType": "address",
          "name": "owner",
          "type": "address"
        },
        {
          "internalType": "string",
          "name": "desc",
          "type": "string"
        },
        {
          "internalType": "string",
          "name": "title",
          "type": "string"
        },
        {
          "internalType": "uint256",
          "name": "collectAmount",
          "type": "uint256"
        },
        {
          "internalType": "uint256",
          "name": "target",
          "type": "uint256"
        },
        {
          "internalType": "uint256",
          "name": "deadline",
          "type": "uint256"
        }
      ],
      "stateMutability": "view",
      "type": "function"
    },
    {
      "inputs": [
        {
          "internalType": "address",
          "name": "_owner",
          "type": "address"
        },
        {
          "internalType": "string",
          "name": "_desc",
          "type": "string"
        },
        {
          "internalType": "string",
          "name": "_title",
          "type": "string"
        },
        {
          "internalType": "uint256",
          "name": "_target",
          "type": "uint256"
        },
        {
          "internalType": "uint256",
          "name": "_deadline",
          "type": "uint256"
        }
      ],
      "name": "createCampigen",
      "outputs": [
        {
          "internalType": "uint256",
          "name": "",
          "type": "uint256"
        }
      ],
      "stateMutability": "nonpayable",
      "type": "function"
    },
    {
      "inputs": [
        {
          "internalType": "uint256",
          "name": "_id",
          "type": "uint256"
        }
      ],
      "name": "donateToCampigen",
      "outputs": [],
      "stateMutability": "payable",
      "type": "function"
    },
    {
      "inputs": [],
      "name": "getCampignes",
      "outputs": [
        {
          "components": [
            {
              "internalType": "address",
              "name": "owner",
              "type": "address"
            },
            {
              "internalType": "string",
              "name": "desc",
              "type": "string"
            },
            {
              "internalType": "string",
              "name": "title",
              "type": "string"
            },
            {
              "internalType": "uint256",
              "name": "collectAmount",
              "type": "uint256"
            },
            {
              "internalType": "uint256",
              "name": "target",
              "type": "uint256"
            },
            {
              "internalType": "uint256",
              "name": "deadline",
              "type": "uint256"
            },
            {
              "internalType": "address[]",
              "name": "donaters",
              "type": "address[]"
            },
            {
              "internalType": "uint256[]",
              "name": "donation",
              "type": "uint256[]"
            }
          ],
          "internalType": "struct CrowdFunding.Campigen[]",
          "name": "",
          "type": "tuple[]"
        }
      ],
      "stateMutability": "view",
      "type": "function"
    },
    {
      "inputs": [
        {
          "internalType": "uint256",
          "name": "_id",
          "type": "uint256"
        }
      ],
      "name": "getDonaers",
      "outputs": [
        {
          "internalType": "address[]",
          "name": "",
          "type": "address[]"
        },
        {
          "internalType": "uint256[]",
          "name": "",
          "type": "uint256[]"
        }
      ],
      "stateMutability": "view",
      "type": "function"
    }
  ],
  "bytecode": "0x60806040526000600155348015601457600080fd5b50611747806100246000396000f3fe60806040526004361061004a5760003560e01c806314318b581461004f578063384b47af1461007a5780634bba82fe14610096578063b281c204146100d8578063d6c234ca14610115575b600080fd5b34801561005b57600080fd5b50610064610153565b6040516100719190610da3565b60405180910390f35b610094600480360381019061008f9190610e05565b610491565b005b3480156100a257600080fd5b506100bd60048036038101906100b89190610e05565b6105f4565b6040516100cf96959493929190610e9a565b60405180910390f35b3480156100e457600080fd5b506100ff60048036038101906100fa919061106a565b610760565b60405161010c919061111d565b60405180910390f35b34801561012157600080fd5b5061013c60048036038101906101379190610e05565b610874565b60405161014a929190611216565b60405180910390f35b6060600060015467ffffffffffffffff81111561017357610172610f3f565b5b6040519080825280602002602001820160405280156101ac57816020015b610199610979565b8152602001906001900390816101915790505b50905060005b600154811015610489576000806000838152602001908152602001600020905080604051806101000160405290816000820160009054906101000a900473ffffffffffffffffffffffffffffffffffffffff1673ffffffffffffffffffffffffffffffffffffffff1673ffffffffffffffffffffffffffffffffffffffff1681526020016001820180546102459061127c565b80601f01602080910402602001604051908101604052809291908181526020018280546102719061127c565b80156102be5780601f10610293576101008083540402835291602001916102be565b820191906000526020600020905b8154815290600101906020018083116102a157829003601f168201915b505050505081526020016002820180546102d79061127c565b80601f01602080910402602001604051908101604052809291908181526020018280546103039061127c565b80156103505780601f1061032557610100808354040283529160200191610350565b820191906000526020600020905b81548152906001019060200180831161033357829003601f168201915b50505050508152602001600382015481526020016004820154815260200160058201548152602001600682018054806020026020016040519081016040528092919081815260200182805480156103fc57602002820191906000526020600020905b8160009054906101000a900473ffffffffffffffffffffffffffffffffffffffff1673ffffffffffffffffffffffffffffffffffffffff16815260200190600101908083116103b2575b505050505081526020016007820180548060200260200160405190810160405280929190818152602001828054801561045457602002820191906000526020600020905b815481526020019060010190808311610440575b5050505050815250508383815181106104705761046f6112ad565b5b60200260200101819052505080806001019150506101b2565b508091505090565b60003490506000806000848152602001908152602001600020905080600601339080600181540180825580915050600190039060005260206000200160009091909190916101000a81548173ffffffffffffffffffffffffffffffffffffffff021916908373ffffffffffffffffffffffffffffffffffffffff1602179055508060070182908060018154018082558091505060019003906000526020600020016000909190919091505560008160000160009054906101000a900473ffffffffffffffffffffffffffffffffffffffff1673ffffffffffffffffffffffffffffffffffffffff16836040516105869061130d565b60006040518083038185875af1925050503d80600081146105c3576040519150601f19603f3d011682016040523d82523d6000602084013e6105c8565b606091505b5050905080156105ee57828260030160008282546105e69190611351565b925050819055505b50505050565b60006020528060005260406000206000915090508060000160009054906101000a900473ffffffffffffffffffffffffffffffffffffffff169080600101805461063d9061127c565b80601f01602080910402602001604051908101604052809291908181526020018280546106699061127c565b80156106b65780601f1061068b576101008083540402835291602001916106b6565b820191906000526020600020905b81548152906001019060200180831161069957829003601f168201915b5050505050908060020180546106cb9061127c565b80601f01602080910402602001604051908101604052809291908181526020018280546106f79061127c565b80156107445780601f1061071957610100808354040283529160200191610744565b820191906000526020600020905b81548152906001019060200180831161072757829003601f168201915b5050505050908060030154908060040154908060050154905086565b60008060008060015481526020019081526020016000209050428160050154106107bf576040517f08c379a00000000000000000000000000000000000000000000000000000000081526004016107b6906113f7565b60405180910390fd5b868160000160006101000a81548173ffffffffffffffffffffffffffffffffffffffff021916908373ffffffffffffffffffffffffffffffffffffffff1602179055508581600101908161081391906115c3565b508481600201908161082591906115c3565b50838160040181905550828160050181905550600081600301819055506001600081548092919061085590611695565b91905055506001805461086891906116dd565b91505095945050505050565b6060806000806000858152602001908152602001600020905080600601816007018180548060200260200160405190810160405280929190818152602001828054801561091657602002820191906000526020600020905b8160009054906101000a900473ffffffffffffffffffffffffffffffffffffffff1673ffffffffffffffffffffffffffffffffffffffff16815260200190600101908083116108cc575b505050505091508080548060200260200160405190810160405280929190818152602001828054801561096857602002820191906000526020600020905b815481526020019060010190808311610954575b505050505090509250925050915091565b604051806101000160405280600073ffffffffffffffffffffffffffffffffffffffff168152602001606081526020016060815260200160008152602001600081526020016000815260200160608152602001606081525090565b600081519050919050565b600082825260208201905092915050565b6000819050602082019050919050565b600073ffffffffffffffffffffffffffffffffffffffff82169050919050565b6000610a2b82610a00565b9050919050565b610a3b81610a20565b82525050565b600081519050919050565b600082825260208201905092915050565b60005b83811015610a7b578082015181840152602081019050610a60565b60008484015250505050565b6000601f19601f8301169050919050565b6000610aa382610a41565b610aad8185610a4c565b9350610abd818560208601610a5d565b610ac681610a87565b840191505092915050565b6000819050919050565b610ae481610ad1565b82525050565b600081519050919050565b600082825260208201905092915050565b6000819050602082019050919050565b6000610b228383610a32565b60208301905092915050565b6000602082019050919050565b6000610b4682610aea565b610b508185610af5565b9350610b5b83610b06565b8060005b83811015610b8c578151610b738882610b16565b9750610b7e83610b2e565b925050600181019050610b5f565b5085935050505092915050565b600081519050919050565b600082825260208201905092915050565b6000819050602082019050919050565b6000610bd18383610adb565b60208301905092915050565b6000602082019050919050565b6000610bf582610b99565b610bff8185610ba4565b9350610c0a83610bb5565b8060005b83811015610c3b578151610c228882610bc5565b9750610c2d83610bdd565b925050600181019050610c0e565b5085935050505092915050565b600061010083016000830151610c616000860182610a32565b5060208301518482036020860152610c798282610a98565b91505060408301518482036040860152610c938282610a98565b9150506060830151610ca86060860182610adb565b506080830151610cbb6080860182610adb565b5060a0830151610cce60a0860182610adb565b5060c083015184820360c0860152610ce68282610b3b565b91505060e083015184820360e0860152610d008282610bea565b9150508091505092915050565b6000610d198383610c48565b905092915050565b6000602082019050919050565b6000610d39826109d4565b610d4381856109df565b935083602082028501610d55856109f0565b8060005b85811015610d915784840389528151610d728582610d0d565b9450610d7d83610d21565b925060208a01995050600181019050610d59565b50829750879550505050505092915050565b60006020820190508181036000830152610dbd8184610d2e565b905092915050565b6000604051905090565b600080fd5b600080fd5b610de281610ad1565b8114610ded57600080fd5b50565b600081359050610dff81610dd9565b92915050565b600060208284031215610e1b57610e1a610dcf565b5b6000610e2984828501610df0565b91505092915050565b610e3b81610a20565b82525050565b600082825260208201905092915050565b6000610e5d82610a41565b610e678185610e41565b9350610e77818560208601610a5d565b610e8081610a87565b840191505092915050565b610e9481610ad1565b82525050565b600060c082019050610eaf6000830189610e32565b8181036020830152610ec18188610e52565b90508181036040830152610ed58187610e52565b9050610ee46060830186610e8b565b610ef16080830185610e8b565b610efe60a0830184610e8b565b979650505050505050565b610f1281610a20565b8114610f1d57600080fd5b50565b600081359050610f2f81610f09565b92915050565b600080fd5b600080fd5b7f4e487b7100000000000000000000000000000000000000000000000000000000600052604160045260246000fd5b610f7782610a87565b810181811067ffffffffffffffff82111715610f9657610f95610f3f565b5b80604052505050565b6000610fa9610dc5565b9050610fb58282610f6e565b919050565b600067ffffffffffffffff821115610fd557610fd4610f3f565b5b610fde82610a87565b9050602081019050919050565b82818337600083830152505050565b600061100d61100884610fba565b610f9f565b90508281526020810184848401111561102957611028610f3a565b5b611034848285610feb565b509392505050565b600082601f83011261105157611050610f35565b5b8135611061848260208601610ffa565b91505092915050565b600080600080600060a0868803121561108657611085610dcf565b5b600061109488828901610f20565b955050602086013567ffffffffffffffff8111156110b5576110b4610dd4565b5b6110c18882890161103c565b945050604086013567ffffffffffffffff8111156110e2576110e1610dd4565b5b6110ee8882890161103c565b93505060606110ff88828901610df0565b925050608061111088828901610df0565b9150509295509295909350565b60006020820190506111326000830184610e8b565b92915050565b600082825260208201905092915050565b600061115482610aea565b61115e8185611138565b935061116983610b06565b8060005b8381101561119a5781516111818882610b16565b975061118c83610b2e565b92505060018101905061116d565b5085935050505092915050565b600082825260208201905092915050565b60006111c382610b99565b6111cd81856111a7565b93506111d883610bb5565b8060005b838110156112095781516111f08882610bc5565b97506111fb83610bdd565b9250506001810190506111dc565b5085935050505092915050565b600060408201905081810360008301526112308185611149565b9050818103602083015261124481846111b8565b90509392505050565b7f4e487b7100000000000000000000000000000000000000000000000000000000600052602260045260246000fd5b6000600282049050600182168061129457607f821691505b6020821081036112a7576112a661124d565b5b50919050565b7f4e487b7100000000000000000000000000000000000000000000000000000000600052603260045260246000fd5b600081905092915050565b50565b60006112f76000836112dc565b9150611302826112e7565b600082019050919050565b6000611318826112ea565b9150819050919050565b7f4e487b7100000000000000000000000000000000000000000000000000000000600052601160045260246000fd5b600061135c82610ad1565b915061136783610ad1565b925082820190508082111561137f5761137e611322565b5b92915050565b7f54686520646561646c696e652073686f756c642062652061206461746520696e60008201527f2066757475726500000000000000000000000000000000000000000000000000602082015250565b60006113e1602783610e41565b91506113ec82611385565b604082019050919050565b60006020820190508181036000830152611410816113d4565b9050919050565b60008190508160005260206000209050919050565b60006020601f8301049050919050565b600082821b905092915050565b6000600883026114797fffffffffffffffffffffffffffffffffffffffffffffffffffffffffffffffff8261143c565b611483868361143c565b95508019841693508086168417925050509392505050565b6000819050919050565b60006114c06114bb6114b684610ad1565b61149b565b610ad1565b9050919050565b6000819050919050565b6114da836114a5565b6114ee6114e6826114c7565b848454611449565b825550505050565b600090565b6115036114f6565b61150e8184846114d1565b505050565b5b81811015611532576115276000826114fb565b600181019050611514565b5050565b601f8211156115775761154881611417565b6115518461142c565b81016020851015611560578190505b61157461156c8561142c565b830182611513565b50505b505050565b600082821c905092915050565b600061159a6000198460080261157c565b1980831691505092915050565b60006115b38383611589565b9150826002028217905092915050565b6115cc82610a41565b67ffffffffffffffff8111156115e5576115e4610f3f565b5b6115ef825461127c565b6115fa828285611536565b600060209050601f83116001811461162d576000841561161b578287015190505b61162585826115a7565b86555061168d565b601f19841661163b86611417565b60005b828110156116635784890151825560018201915060208501945060208101905061163e565b86831015611680578489015161167c601f891682611589565b8355505b6001600288020188555050505b505050505050565b60006116a082610ad1565b91507fffffffffffffffffffffffffffffffffffffffffffffffffffffffffffffffff82036116d2576116d1611322565b5b600182019050919050565b60006116e882610ad1565b91506116f383610ad1565b925082820390508181111561170b5761170a611322565b5b9291505056fea2646970667358221220a3fb9ae0c724ea0ed3b0da1d9ca7b0845abf983ee1f22dee0d1327e9285decd264736f6c634300081c0033",
  "linkReferences": {},
  "deployedLinkReferences": {}
}